{
  "contractName": "Voting",
  "abi": [
    {
      "inputs": [
        {
          "internalType": "uint256",
          "name": "",
          "type": "uint256"
        }
      ],
      "name": "proposals",
      "outputs": [
        {
          "internalType": "string",
          "name": "description",
          "type": "string"
        },
        {
          "internalType": "uint256",
          "name": "voteCount",
          "type": "uint256"
        }
      ],
      "stateMutability": "view",
      "type": "function",
      "constant": true
    },
    {
      "inputs": [
        {
          "internalType": "address",
          "name": "",
          "type": "address"
        }
      ],
      "name": "voters",
      "outputs": [
        {
          "internalType": "bool",
          "name": "",
          "type": "bool"
        }
      ],
      "stateMutability": "view",
      "type": "function",
      "constant": true
    },
    {
      "inputs": [
        {
          "internalType": "string",
          "name": "_description",
          "type": "string"
        }
      ],
      "name": "createProposal",
      "outputs": [],
      "stateMutability": "nonpayable",
      "type": "function"
    },
    {
      "inputs": [
        {
          "internalType": "uint256",
          "name": "_proposalIndex",
          "type": "uint256"
        }
      ],
      "name": "vote",
      "outputs": [],
      "stateMutability": "nonpayable",
      "type": "function"
    },
    {
      "inputs": [
        {
          "internalType": "uint256",
          "name": "_proposalIndex",
          "type": "uint256"
        }
      ],
      "name": "getProposal",
      "outputs": [
        {
          "internalType": "string",
          "name": "description",
          "type": "string"
        },
        {
          "internalType": "uint256",
          "name": "voteCount",
          "type": "uint256"
        }
      ],
      "stateMutability": "view",
      "type": "function",
      "constant": true
    }
  ],
  "bytecode": "0x608060405234801561001057600080fd5b50610aef806100206000396000f3fe608060405234801561001057600080fd5b50600436106100575760003560e01c80630121b93f1461005c578063013cf08b1461007857806349c2a1a6146100a9578063a3ec138d146100c5578063c7f758a8146100f5575b600080fd5b610076600480360381019061007191906106d3565b610126565b005b610092600480360381019061008d91906106d3565b6102b7565b6040516100a09291906107ee565b60405180910390f35b6100c360048036038101906100be9190610692565b610373565b005b6100df60048036038101906100da9190610669565b6103e0565b6040516100ec91906107d3565b60405180910390f35b61010f600480360381019061010a91906106d3565b610400565b60405161011d9291906107ee565b60405180910390f35b600160003373ffffffffffffffffffffffffffffffffffffffff1673ffffffffffffffffffffffffffffffffffffffff16815260200190815260200160002060009054906101000a900460ff16156101b3576040517f08c379a00000000000000000000000000000000000000000000000000000000081526004016101aa9061081e565b60405180910390fd5b60008054905081106101fa576040517f08c379a00000000000000000000000000000000000000000000000000000000081526004016101f19061083e565b60405180910390fd5b60018060003373ffffffffffffffffffffffffffffffffffffffff1673ffffffffffffffffffffffffffffffffffffffff16815260200190815260200160002060006101000a81548160ff02191690831515021790555060016000828154811061028d577f4e487b7100000000000000000000000000000000000000000000000000000000600052603260045260246000fd5b906000526020600020906002020160010160008282546102ad91906108db565b9250508190555050565b600081815481106102c757600080fd5b90600052602060002090600202016000915090508060000180546102ea906109bb565b80601f0160208091040260200160405190810160405280929190818152602001828054610316906109bb565b80156103635780601f1061033857610100808354040283529160200191610363565b820191906000526020600020905b81548152906001019060200180831161034657829003601f168201915b5050505050908060010154905082565b600060405180604001604052808381526020016000815250908060018154018082558091505060019003906000526020600020906002020160009091909190915060008201518160000190805190602001906103d0929190610534565b5060208201518160010155505050565b60016020528060005260406000206000915054906101000a900460ff1681565b606060008080549050831061044a576040517f08c379a00000000000000000000000000000000000000000000000000000000081526004016104419061083e565b60405180910390fd5b6000808481548110610485577f4e487b7100000000000000000000000000000000000000000000000000000000600052603260045260246000fd5b906000526020600020906002020190508060000181600101548180546104aa906109bb565b80601f01602080910402602001604051908101604052809291908181526020018280546104d6906109bb565b80156105235780601f106104f857610100808354040283529160200191610523565b820191906000526020600020905b81548152906001019060200180831161050657829003601f168201915b505050505091509250925050915091565b828054610540906109bb565b90600052602060002090601f01602090048101928261056257600085556105a9565b82601f1061057b57805160ff19168380011785556105a9565b828001600101855582156105a9579182015b828111156105a857825182559160200191906001019061058d565b5b5090506105b691906105ba565b5090565b5b808211156105d35760008160009055506001016105bb565b5090565b60006105ea6105e58461088f565b61085e565b90508281526020810184848401111561060257600080fd5b61060d848285610979565b509392505050565b60008135905061062481610a8b565b92915050565b600082601f83011261063b57600080fd5b813561064b8482602086016105d7565b91505092915050565b60008135905061066381610aa2565b92915050565b60006020828403121561067b57600080fd5b600061068984828501610615565b91505092915050565b6000602082840312156106a457600080fd5b600082013567ffffffffffffffff8111156106be57600080fd5b6106ca8482850161062a565b91505092915050565b6000602082840312156106e557600080fd5b60006106f384828501610654565b91505092915050565b61070581610943565b82525050565b6000610716826108bf565b61072081856108ca565b9350610730818560208601610988565b61073981610a7a565b840191505092915050565b60006107516017836108ca565b91507f596f75206861766520616c726561647920766f7465642e0000000000000000006000830152602082019050919050565b60006107916018836108ca565b91507f50726f706f73616c20646f6573206e6f742065786973742e00000000000000006000830152602082019050919050565b6107cd8161096f565b82525050565b60006020820190506107e860008301846106fc565b92915050565b60006040820190508181036000830152610808818561070b565b905061081760208301846107c4565b9392505050565b6000602082019050818103600083015261083781610744565b9050919050565b6000602082019050818103600083015261085781610784565b9050919050565b6000604051905081810181811067ffffffffffffffff8211171561088557610884610a4b565b5b8060405250919050565b600067ffffffffffffffff8211156108aa576108a9610a4b565b5b601f19601f8301169050602081019050919050565b600081519050919050565b600082825260208201905092915050565b60006108e68261096f565b91506108f18361096f565b9250827fffffffffffffffffffffffffffffffffffffffffffffffffffffffffffffffff03821115610926576109256109ed565b5b828201905092915050565b600061093c8261094f565b9050919050565b60008115159050919050565b600073ffffffffffffffffffffffffffffffffffffffff82169050919050565b6000819050919050565b82818337600083830152505050565b60005b838110156109a657808201518184015260208101905061098b565b838111156109b5576000848401525b50505050565b600060028204905060018216806109d357607f821691505b602082108114156109e7576109e6610a1c565b5b50919050565b7f4e487b7100000000000000000000000000000000000000000000000000000000600052601160045260246000fd5b7f4e487b7100000000000000000000000000000000000000000000000000000000600052602260045260246000fd5b7f4e487b7100000000000000000000000000000000000000000000000000000000600052604160045260246000fd5b6000601f19601f8301169050919050565b610a9481610931565b8114610a9f57600080fd5b50565b610aab8161096f565b8114610ab657600080fd5b5056fea26469706673582212201286d79402c8891ef5aee25969c57ea8eafcbc528cce98032360d349362875c764736f6c63430008000033",
  "immutableReferences": {},
  "source": "// SPDX-License-Identifier: MIT\npragma solidity ^0.8.0;\n\ncontract Voting {\n    struct Proposal {\n        string description;\n        uint voteCount;\n    }\n\n    Proposal[] public proposals;\n    mapping(address => bool) public voters;\n\n    function createProposal(string memory _description) public {\n        proposals.push(Proposal({\n            description: _description,\n            voteCount: 0\n        }));\n    }\n\n    function vote(uint _proposalIndex) public {\n        require(!voters[msg.sender], \"You have already voted.\");\n        require(_proposalIndex < proposals.length, \"Proposal does not exist.\");\n\n        voters[msg.sender] = true;\n        proposals[_proposalIndex].voteCount += 1;\n    }\n\n    function getProposal(uint _proposalIndex) public view returns (string memory description, uint voteCount) {\n        require(_proposalIndex < proposals.length, \"Proposal does not exist.\");\n\n        Proposal storage proposal = proposals[_proposalIndex];\n        return (proposal.description, proposal.voteCount);\n    }\n}\n\n",
  "sourcePath": "/home/babarjunaid123/voting-dapp/contracts/Voting.sol",
  "compiler": {
    "name": "solc",
    "version": "0.8.0+commit.c7dfd78e.Emscripten.clang"
  },
  "schemaVersion": "3.4.16",
  "updatedAt": "2024-07-10T08:21:40.895Z",
  "networkType": "ethereum",
  "devdoc": {
    "kind": "dev",
    "methods": {},
    "version": 1
  },
  "userdoc": {
    "kind": "user",
    "methods": {},
    "version": 1
  }
}